{
  "contractName": "MyNFT",
  "abi": [
    {
      "inputs": [],
      "stateMutability": "nonpayable",
      "type": "constructor"
    },
    {
      "anonymous": false,
      "inputs": [
        {
          "indexed": true,
          "internalType": "address",
          "name": "owner",
          "type": "address"
        },
        {
          "indexed": true,
          "internalType": "address",
          "name": "approved",
          "type": "address"
        },
        {
          "indexed": true,
          "internalType": "uint256",
          "name": "tokenId",
          "type": "uint256"
        }
      ],
      "name": "Approval",
      "type": "event"
    },
    {
      "anonymous": false,
      "inputs": [
        {
          "indexed": true,
          "internalType": "address",
          "name": "owner",
          "type": "address"
        },
        {
          "indexed": true,
          "internalType": "address",
          "name": "operator",
          "type": "address"
        },
        {
          "indexed": false,
          "internalType": "bool",
          "name": "approved",
          "type": "bool"
        }
      ],
      "name": "ApprovalForAll",
      "type": "event"
    },
    {
      "anonymous": false,
      "inputs": [
        {
          "indexed": true,
          "internalType": "address",
          "name": "previousOwner",
          "type": "address"
        },
        {
          "indexed": true,
          "internalType": "address",
          "name": "newOwner",
          "type": "address"
        }
      ],
      "name": "OwnershipTransferred",
      "type": "event"
    },
    {
      "anonymous": false,
      "inputs": [
        {
          "indexed": true,
          "internalType": "address",
          "name": "from",
          "type": "address"
        },
        {
          "indexed": true,
          "internalType": "address",
          "name": "to",
          "type": "address"
        },
        {
          "indexed": true,
          "internalType": "uint256",
          "name": "tokenId",
          "type": "uint256"
        }
      ],
      "name": "Transfer",
      "type": "event"
    },
    {
      "inputs": [
        {
          "internalType": "address",
          "name": "to",
          "type": "address"
        },
        {
          "internalType": "uint256",
          "name": "tokenId",
          "type": "uint256"
        }
      ],
      "name": "approve",
      "outputs": [],
      "stateMutability": "nonpayable",
      "type": "function"
    },
    {
      "inputs": [
        {
          "internalType": "address",
          "name": "owner",
          "type": "address"
        }
      ],
      "name": "balanceOf",
      "outputs": [
        {
          "internalType": "uint256",
          "name": "",
          "type": "uint256"
        }
      ],
      "stateMutability": "view",
      "type": "function",
      "constant": true
    },
    {
      "inputs": [
        {
          "internalType": "uint256",
          "name": "tokenId",
          "type": "uint256"
        }
      ],
      "name": "getApproved",
      "outputs": [
        {
          "internalType": "address",
          "name": "",
          "type": "address"
        }
      ],
      "stateMutability": "view",
      "type": "function",
      "constant": true
    },
    {
      "inputs": [
        {
          "internalType": "address",
          "name": "owner",
          "type": "address"
        },
        {
          "internalType": "address",
          "name": "operator",
          "type": "address"
        }
      ],
      "name": "isApprovedForAll",
      "outputs": [
        {
          "internalType": "bool",
          "name": "",
          "type": "bool"
        }
      ],
      "stateMutability": "view",
      "type": "function",
      "constant": true
    },
    {
      "inputs": [],
      "name": "name",
      "outputs": [
        {
          "internalType": "string",
          "name": "",
          "type": "string"
        }
      ],
      "stateMutability": "view",
      "type": "function",
      "constant": true
    },
    {
      "inputs": [],
      "name": "nextTokenId",
      "outputs": [
        {
          "internalType": "uint256",
          "name": "",
          "type": "uint256"
        }
      ],
      "stateMutability": "view",
      "type": "function",
      "constant": true
    },
    {
      "inputs": [],
      "name": "owner",
      "outputs": [
        {
          "internalType": "address",
          "name": "",
          "type": "address"
        }
      ],
      "stateMutability": "view",
      "type": "function",
      "constant": true
    },
    {
      "inputs": [
        {
          "internalType": "uint256",
          "name": "tokenId",
          "type": "uint256"
        }
      ],
      "name": "ownerOf",
      "outputs": [
        {
          "internalType": "address",
          "name": "",
          "type": "address"
        }
      ],
      "stateMutability": "view",
      "type": "function",
      "constant": true
    },
    {
      "inputs": [],
      "name": "renounceOwnership",
      "outputs": [],
      "stateMutability": "nonpayable",
      "type": "function"
    },
    {
      "inputs": [
        {
          "internalType": "address",
          "name": "from",
          "type": "address"
        },
        {
          "internalType": "address",
          "name": "to",
          "type": "address"
        },
        {
          "internalType": "uint256",
          "name": "tokenId",
          "type": "uint256"
        }
      ],
      "name": "safeTransferFrom",
      "outputs": [],
      "stateMutability": "nonpayable",
      "type": "function"
    },
    {
      "inputs": [
        {
          "internalType": "address",
          "name": "from",
          "type": "address"
        },
        {
          "internalType": "address",
          "name": "to",
          "type": "address"
        },
        {
          "internalType": "uint256",
          "name": "tokenId",
          "type": "uint256"
        },
        {
          "internalType": "bytes",
          "name": "_data",
          "type": "bytes"
        }
      ],
      "name": "safeTransferFrom",
      "outputs": [],
      "stateMutability": "nonpayable",
      "type": "function"
    },
    {
      "inputs": [
        {
          "internalType": "address",
          "name": "operator",
          "type": "address"
        },
        {
          "internalType": "bool",
          "name": "approved",
          "type": "bool"
        }
      ],
      "name": "setApprovalForAll",
      "outputs": [],
      "stateMutability": "nonpayable",
      "type": "function"
    },
    {
      "inputs": [
        {
          "internalType": "bytes4",
          "name": "interfaceId",
          "type": "bytes4"
        }
      ],
      "name": "supportsInterface",
      "outputs": [
        {
          "internalType": "bool",
          "name": "",
          "type": "bool"
        }
      ],
      "stateMutability": "view",
      "type": "function",
      "constant": true
    },
    {
      "inputs": [],
      "name": "symbol",
      "outputs": [
        {
          "internalType": "string",
          "name": "",
          "type": "string"
        }
      ],
      "stateMutability": "view",
      "type": "function",
      "constant": true
    },
    {
      "inputs": [
        {
          "internalType": "uint256",
          "name": "tokenId",
          "type": "uint256"
        }
      ],
      "name": "tokenURI",
      "outputs": [
        {
          "internalType": "string",
          "name": "",
          "type": "string"
        }
      ],
      "stateMutability": "view",
      "type": "function",
      "constant": true
    },
    {
      "inputs": [
        {
          "internalType": "address",
          "name": "from",
          "type": "address"
        },
        {
          "internalType": "address",
          "name": "to",
          "type": "address"
        },
        {
          "internalType": "uint256",
          "name": "tokenId",
          "type": "uint256"
        }
      ],
      "name": "transferFrom",
      "outputs": [],
      "stateMutability": "nonpayable",
      "type": "function"
    },
    {
      "inputs": [
        {
          "internalType": "address",
          "name": "newOwner",
          "type": "address"
        }
      ],
      "name": "transferOwnership",
      "outputs": [],
      "stateMutability": "nonpayable",
      "type": "function"
    },
    {
      "inputs": [
        {
          "internalType": "address",
          "name": "to",
          "type": "address"
        }
      ],
      "name": "mint",
      "outputs": [],
      "stateMutability": "nonpayable",
      "type": "function"
    },
    {
      "inputs": [],
      "name": "getBaseURI",
      "outputs": [
        {
          "internalType": "string",
          "name": "",
          "type": "string"
        }
      ],
      "stateMutability": "view",
      "type": "function",
      "constant": true
    }
  ],
  "bytecode": "0x60806040523480156200001157600080fd5b506040518060400160405280600581526020017f4d794e46540000000000000000000000000000000000000000000000000000008152506040518060400160405280600481526020017f4d4e465400000000000000000000000000000000000000000000000000000000815250816000908051906020019062000096929190620001a6565b508060019080519060200190620000af929190620001a6565b505050620000d2620000c6620000d860201b60201c565b620000e060201b60201c565b620002ba565b600033905090565b6000600660009054906101000a900473ffffffffffffffffffffffffffffffffffffffff16905081600660006101000a81548173ffffffffffffffffffffffffffffffffffffffff021916908373ffffffffffffffffffffffffffffffffffffffff1602179055508173ffffffffffffffffffffffffffffffffffffffff168173ffffffffffffffffffffffffffffffffffffffff167f8be0079c531659141344cd1fd0a4f28419497f9722a3daafe3b4186f6b6457e060405160405180910390a35050565b828054620001b49062000285565b90600052602060002090601f016020900481019282620001d8576000855562000224565b82601f10620001f357805160ff191683800117855562000224565b8280016001018555821562000224579182015b828111156200022357825182559160200191906001019062000206565b5b50905062000233919062000237565b5090565b5b808211156200025257600081600090555060010162000238565b5090565b7f4e487b7100000000000000000000000000000000000000000000000000000000600052602260045260246000fd5b600060028204905060018216806200029e57607f821691505b602082108103620002b457620002b362000256565b5b50919050565b612c0d80620002ca6000396000f3fe608060405234801561001057600080fd5b50600436106101215760003560e01c8063714c5398116100ad578063a22cb46511610071578063a22cb465146102f6578063b88d4fde14610312578063c87b56dd1461032e578063e985e9c51461035e578063f2fde38b1461038e57610121565b8063714c539814610274578063715018a61461029257806375794a3c1461029c5780638da5cb5b146102ba57806395d89b41146102d857610121565b806323b872dd116100f457806323b872dd146101c057806342842e0e146101dc5780636352211e146101f85780636a6278421461022857806370a082311461024457610121565b806301ffc9a71461012657806306fdde0314610156578063081812fc14610174578063095ea7b3146101a4575b600080fd5b610140600480360381019061013b9190611a94565b6103aa565b60405161014d9190611adc565b60405180910390f35b61015e61048c565b60405161016b9190611b90565b60405180910390f35b61018e60048036038101906101899190611be8565b61051e565b60405161019b9190611c56565b60405180910390f35b6101be60048036038101906101b99190611c9d565b6105a3565b005b6101da60048036038101906101d59190611cdd565b6106ba565b005b6101f660048036038101906101f19190611cdd565b61071a565b005b610212600480360381019061020d9190611be8565b61073a565b60405161021f9190611c56565b60405180910390f35b610242600480360381019061023d9190611d30565b6107eb565b005b61025e60048036038101906102599190611d30565b61088e565b60405161026b9190611d6c565b60405180910390f35b61027c610945565b6040516102899190611b90565b60405180910390f35b61029a610954565b005b6102a46109dc565b6040516102b19190611d6c565b60405180910390f35b6102c26109e2565b6040516102cf9190611c56565b60405180910390f35b6102e0610a0c565b6040516102ed9190611b90565b60405180910390f35b610310600480360381019061030b9190611db3565b610a9e565b005b61032c60048036038101906103279190611f28565b610ab4565b005b61034860048036038101906103439190611be8565b610b16565b6040516103559190611b90565b60405180910390f35b61037860048036038101906103739190611fab565b610bbd565b6040516103859190611adc565b60405180910390f35b6103a860048036038101906103a39190611d30565b610c51565b005b60007f80ac58cd000000000000000000000000000000000000000000000000000000007bffffffffffffffffffffffffffffffffffffffffffffffffffffffff1916827bffffffffffffffffffffffffffffffffffffffffffffffffffffffff1916148061047557507f5b5e139f000000000000000000000000000000000000000000000000000000007bffffffffffffffffffffffffffffffffffffffffffffffffffffffff1916827bffffffffffffffffffffffffffffffffffffffffffffffffffffffff1916145b80610485575061048482610d48565b5b9050919050565b60606000805461049b9061201a565b80601f01602080910402602001604051908101604052809291908181526020018280546104c79061201a565b80156105145780601f106104e957610100808354040283529160200191610514565b820191906000526020600020905b8154815290600101906020018083116104f757829003601f168201915b5050505050905090565b600061052982610db2565b610568576040517f08c379a000000000000000000000000000000000000000000000000000000000815260040161055f906120bd565b60405180910390fd5b6004600083815260200190815260200160002060009054906101000a900473ffffffffffffffffffffffffffffffffffffffff169050919050565b60006105ae8261073a565b90508073ffffffffffffffffffffffffffffffffffffffff168373ffffffffffffffffffffffffffffffffffffffff160361061e576040517f08c379a00000000000000000000000000000000000000000000000000000000081526004016106159061214f565b60405180910390fd5b8073ffffffffffffffffffffffffffffffffffffffff1661063d610e1e565b73ffffffffffffffffffffffffffffffffffffffff16148061066c575061066b81610666610e1e565b610bbd565b5b6106ab576040517f08c379a00000000000000000000000000000000000000000000000000000000081526004016106a2906121e1565b60405180910390fd5b6106b58383610e26565b505050565b6106cb6106c5610e1e565b82610edf565b61070a576040517f08c379a000000000000000000000000000000000000000000000000000000000815260040161070190612273565b60405180910390fd5b610715838383610fbd565b505050565b61073583838360405180602001604052806000815250610ab4565b505050565b6000806002600084815260200190815260200160002060009054906101000a900473ffffffffffffffffffffffffffffffffffffffff169050600073ffffffffffffffffffffffffffffffffffffffff168173ffffffffffffffffffffffffffffffffffffffff16036107e2576040517f08c379a00000000000000000000000000000000000000000000000000000000081526004016107d990612305565b60405180910390fd5b80915050919050565b6107f3610e1e565b73ffffffffffffffffffffffffffffffffffffffff166108116109e2565b73ffffffffffffffffffffffffffffffffffffffff1614610867576040517f08c379a000000000000000000000000000000000000000000000000000000000815260040161085e90612371565b60405180910390fd5b61087381600754611218565b60076000815480929190610886906123c0565b919050555050565b60008073ffffffffffffffffffffffffffffffffffffffff168273ffffffffffffffffffffffffffffffffffffffff16036108fe576040517f08c379a00000000000000000000000000000000000000000000000000000000081526004016108f59061247a565b60405180910390fd5b600360008373ffffffffffffffffffffffffffffffffffffffff1673ffffffffffffffffffffffffffffffffffffffff168152602001908152602001600020549050919050565b606061094f611236565b905090565b61095c610e1e565b73ffffffffffffffffffffffffffffffffffffffff1661097a6109e2565b73ffffffffffffffffffffffffffffffffffffffff16146109d0576040517f08c379a00000000000000000000000000000000000000000000000000000000081526004016109c790612371565b60405180910390fd5b6109da6000611273565b565b60075481565b6000600660009054906101000a900473ffffffffffffffffffffffffffffffffffffffff16905090565b606060018054610a1b9061201a565b80601f0160208091040260200160405190810160405280929190818152602001828054610a479061201a565b8015610a945780601f10610a6957610100808354040283529160200191610a94565b820191906000526020600020905b815481529060010190602001808311610a7757829003601f168201915b5050505050905090565b610ab0610aa9610e1e565b8383611339565b5050565b610ac5610abf610e1e565b83610edf565b610b04576040517f08c379a0000000000000000000000000000000000000000000000000000000008152600401610afb90612273565b60405180910390fd5b610b10848484846114a5565b50505050565b6060610b2182610db2565b610b60576040517f08c379a0000000000000000000000000000000000000000000000000000000008152600401610b579061250c565b60405180910390fd5b6000610b6a611236565b90506000815111610b8a5760405180602001604052806000815250610bb5565b80610b9484611501565b604051602001610ba5929190612568565b6040516020818303038152906040525b915050919050565b6000600560008473ffffffffffffffffffffffffffffffffffffffff1673ffffffffffffffffffffffffffffffffffffffff16815260200190815260200160002060008373ffffffffffffffffffffffffffffffffffffffff1673ffffffffffffffffffffffffffffffffffffffff16815260200190815260200160002060009054906101000a900460ff16905092915050565b610c59610e1e565b73ffffffffffffffffffffffffffffffffffffffff16610c776109e2565b73ffffffffffffffffffffffffffffffffffffffff1614610ccd576040517f08c379a0000000000000000000000000000000000000000000000000000000008152600401610cc490612371565b60405180910390fd5b600073ffffffffffffffffffffffffffffffffffffffff168173ffffffffffffffffffffffffffffffffffffffff1603610d3c576040517f08c379a0000000000000000000000000000000000000000000000000000000008152600401610d33906125fe565b60405180910390fd5b610d4581611273565b50565b60007f01ffc9a7000000000000000000000000000000000000000000000000000000007bffffffffffffffffffffffffffffffffffffffffffffffffffffffff1916827bffffffffffffffffffffffffffffffffffffffffffffffffffffffff1916149050919050565b60008073ffffffffffffffffffffffffffffffffffffffff166002600084815260200190815260200160002060009054906101000a900473ffffffffffffffffffffffffffffffffffffffff1673ffffffffffffffffffffffffffffffffffffffff1614159050919050565b600033905090565b816004600083815260200190815260200160002060006101000a81548173ffffffffffffffffffffffffffffffffffffffff021916908373ffffffffffffffffffffffffffffffffffffffff160217905550808273ffffffffffffffffffffffffffffffffffffffff16610e998361073a565b73ffffffffffffffffffffffffffffffffffffffff167f8c5be1e5ebec7d5bd14f71427d1e84f3dd0314c0f7b2291e5b200ac8c7c3b92560405160405180910390a45050565b6000610eea82610db2565b610f29576040517f08c379a0000000000000000000000000000000000000000000000000000000008152600401610f2090612690565b60405180910390fd5b6000610f348361073a565b90508073ffffffffffffffffffffffffffffffffffffffff168473ffffffffffffffffffffffffffffffffffffffff161480610fa357508373ffffffffffffffffffffffffffffffffffffffff16610f8b8461051e565b73ffffffffffffffffffffffffffffffffffffffff16145b80610fb45750610fb38185610bbd565b5b91505092915050565b8273ffffffffffffffffffffffffffffffffffffffff16610fdd8261073a565b73ffffffffffffffffffffffffffffffffffffffff1614611033576040517f08c379a000000000000000000000000000000000000000000000000000000000815260040161102a90612722565b60405180910390fd5b600073ffffffffffffffffffffffffffffffffffffffff168273ffffffffffffffffffffffffffffffffffffffff16036110a2576040517f08c379a0000000000000000000000000000000000000000000000000000000008152600401611099906127b4565b60405180910390fd5b6110ad838383611661565b6110b8600082610e26565b6001600360008573ffffffffffffffffffffffffffffffffffffffff1673ffffffffffffffffffffffffffffffffffffffff168152602001908152602001600020600082825461110891906127d4565b925050819055506001600360008473ffffffffffffffffffffffffffffffffffffffff1673ffffffffffffffffffffffffffffffffffffffff168152602001908152602001600020600082825461115f9190612808565b92505081905550816002600083815260200190815260200160002060006101000a81548173ffffffffffffffffffffffffffffffffffffffff021916908373ffffffffffffffffffffffffffffffffffffffff160217905550808273ffffffffffffffffffffffffffffffffffffffff168473ffffffffffffffffffffffffffffffffffffffff167fddf252ad1be2c89b69c2b068fc378daa952ba7f163c4a11628f55a4df523b3ef60405160405180910390a4505050565b611232828260405180602001604052806000815250611666565b5050565b60606040518060400160405280601f81526020017f68747470733a2f2f6170692e6d796e66742e636f6d2f6d657461646174612f00815250905090565b6000600660009054906101000a900473ffffffffffffffffffffffffffffffffffffffff16905081600660006101000a81548173ffffffffffffffffffffffffffffffffffffffff021916908373ffffffffffffffffffffffffffffffffffffffff1602179055508173ffffffffffffffffffffffffffffffffffffffff168173ffffffffffffffffffffffffffffffffffffffff167f8be0079c531659141344cd1fd0a4f28419497f9722a3daafe3b4186f6b6457e060405160405180910390a35050565b8173ffffffffffffffffffffffffffffffffffffffff168373ffffffffffffffffffffffffffffffffffffffff16036113a7576040517f08c379a000000000000000000000000000000000000000000000000000000000815260040161139e906128aa565b60405180910390fd5b80600560008573ffffffffffffffffffffffffffffffffffffffff1673ffffffffffffffffffffffffffffffffffffffff16815260200190815260200160002060008473ffffffffffffffffffffffffffffffffffffffff1673ffffffffffffffffffffffffffffffffffffffff16815260200190815260200160002060006101000a81548160ff0219169083151502179055508173ffffffffffffffffffffffffffffffffffffffff168373ffffffffffffffffffffffffffffffffffffffff167f17307eab39ab6107e8899845ad3d59bd9653f200f220920489ca2b5937696c31836040516114989190611adc565b60405180910390a3505050565b6114b0848484610fbd565b6114bc848484846116c1565b6114fb576040517f08c379a00000000000000000000000000000000000000000000000000000000081526004016114f29061293c565b60405180910390fd5b50505050565b606060008203611548576040518060400160405280600181526020017f3000000000000000000000000000000000000000000000000000000000000000815250905061165c565b600082905060005b6000821461157a578080611563906123c0565b915050600a82611573919061298b565b9150611550565b60008167ffffffffffffffff81111561159657611595611dfd565b5b6040519080825280601f01601f1916602001820160405280156115c85781602001600182028036833780820191505090505b5090505b60008514611655576001826115e191906127d4565b9150600a856115f091906129bc565b60306115fc9190612808565b60f81b818381518110611612576116116129ed565b5b60200101907effffffffffffffffffffffffffffffffffffffffffffffffffffffffffffff1916908160001a905350600a8561164e919061298b565b94506115cc565b8093505050505b919050565b505050565b6116708383611848565b61167d60008484846116c1565b6116bc576040517f08c379a00000000000000000000000000000000000000000000000000000000081526004016116b39061293c565b60405180910390fd5b505050565b60006116e28473ffffffffffffffffffffffffffffffffffffffff16611a15565b1561183b578373ffffffffffffffffffffffffffffffffffffffff1663150b7a0261170b610e1e565b8786866040518563ffffffff1660e01b815260040161172d9493929190612a71565b6020604051808303816000875af192505050801561176957506040513d601f19601f820116820180604052508101906117669190612ad2565b60015b6117eb573d8060008114611799576040519150601f19603f3d011682016040523d82523d6000602084013e61179e565b606091505b5060008151036117e3576040517f08c379a00000000000000000000000000000000000000000000000000000000081526004016117da9061293c565b60405180910390fd5b805181602001fd5b63150b7a0260e01b7bffffffffffffffffffffffffffffffffffffffffffffffffffffffff1916817bffffffffffffffffffffffffffffffffffffffffffffffffffffffff191614915050611840565b600190505b949350505050565b600073ffffffffffffffffffffffffffffffffffffffff168273ffffffffffffffffffffffffffffffffffffffff16036118b7576040517f08c379a00000000000000000000000000000000000000000000000000000000081526004016118ae90612b4b565b60405180910390fd5b6118c081610db2565b15611900576040517f08c379a00000000000000000000000000000000000000000000000000000000081526004016118f790612bb7565b60405180910390fd5b61190c60008383611661565b6001600360008473ffffffffffffffffffffffffffffffffffffffff1673ffffffffffffffffffffffffffffffffffffffff168152602001908152602001600020600082825461195c9190612808565b92505081905550816002600083815260200190815260200160002060006101000a81548173ffffffffffffffffffffffffffffffffffffffff021916908373ffffffffffffffffffffffffffffffffffffffff160217905550808273ffffffffffffffffffffffffffffffffffffffff16600073ffffffffffffffffffffffffffffffffffffffff167fddf252ad1be2c89b69c2b068fc378daa952ba7f163c4a11628f55a4df523b3ef60405160405180910390a45050565b600080823b905060008111915050919050565b6000604051905090565b600080fd5b600080fd5b60007fffffffff0000000000000000000000000000000000000000000000000000000082169050919050565b611a7181611a3c565b8114611a7c57600080fd5b50565b600081359050611a8e81611a68565b92915050565b600060208284031215611aaa57611aa9611a32565b5b6000611ab884828501611a7f565b91505092915050565b60008115159050919050565b611ad681611ac1565b82525050565b6000602082019050611af16000830184611acd565b92915050565b600081519050919050565b600082825260208201905092915050565b60005b83811015611b31578082015181840152602081019050611b16565b83811115611b40576000848401525b50505050565b6000601f19601f8301169050919050565b6000611b6282611af7565b611b6c8185611b02565b9350611b7c818560208601611b13565b611b8581611b46565b840191505092915050565b60006020820190508181036000830152611baa8184611b57565b905092915050565b6000819050919050565b611bc581611bb2565b8114611bd057600080fd5b50565b600081359050611be281611bbc565b92915050565b600060208284031215611bfe57611bfd611a32565b5b6000611c0c84828501611bd3565b91505092915050565b600073ffffffffffffffffffffffffffffffffffffffff82169050919050565b6000611c4082611c15565b9050919050565b611c5081611c35565b82525050565b6000602082019050611c6b6000830184611c47565b92915050565b611c7a81611c35565b8114611c8557600080fd5b50565b600081359050611c9781611c71565b92915050565b60008060408385031215611cb457611cb3611a32565b5b6000611cc285828601611c88565b9250506020611cd385828601611bd3565b9150509250929050565b600080600060608486031215611cf657611cf5611a32565b5b6000611d0486828701611c88565b9350506020611d1586828701611c88565b9250506040611d2686828701611bd3565b9150509250925092565b600060208284031215611d4657611d45611a32565b5b6000611d5484828501611c88565b91505092915050565b611d6681611bb2565b82525050565b6000602082019050611d816000830184611d5d565b92915050565b611d9081611ac1565b8114611d9b57600080fd5b50565b600081359050611dad81611d87565b92915050565b60008060408385031215611dca57611dc9611a32565b5b6000611dd885828601611c88565b9250506020611de985828601611d9e565b9150509250929050565b600080fd5b600080fd5b7f4e487b7100000000000000000000000000000000000000000000000000000000600052604160045260246000fd5b611e3582611b46565b810181811067ffffffffffffffff82111715611e5457611e53611dfd565b5b80604052505050565b6000611e67611a28565b9050611e738282611e2c565b919050565b600067ffffffffffffffff821115611e9357611e92611dfd565b5b611e9c82611b46565b9050602081019050919050565b82818337600083830152505050565b6000611ecb611ec684611e78565b611e5d565b905082815260208101848484011115611ee757611ee6611df8565b5b611ef2848285611ea9565b509392505050565b600082601f830112611f0f57611f0e611df3565b5b8135611f1f848260208601611eb8565b91505092915050565b60008060008060808587031215611f4257611f41611a32565b5b6000611f5087828801611c88565b9450506020611f6187828801611c88565b9350506040611f7287828801611bd3565b925050606085013567ffffffffffffffff811115611f9357611f92611a37565b5b611f9f87828801611efa565b91505092959194509250565b60008060408385031215611fc257611fc1611a32565b5b6000611fd085828601611c88565b9250506020611fe185828601611c88565b9150509250929050565b7f4e487b7100000000000000000000000000000000000000000000000000000000600052602260045260246000fd5b6000600282049050600182168061203257607f821691505b60208210810361204557612044611feb565b5b50919050565b7f4552433732313a20617070726f76656420717565727920666f72206e6f6e657860008201527f697374656e7420746f6b656e0000000000000000000000000000000000000000602082015250565b60006120a7602c83611b02565b91506120b28261204b565b604082019050919050565b600060208201905081810360008301526120d68161209a565b9050919050565b7f4552433732313a20617070726f76616c20746f2063757272656e74206f776e6560008201527f7200000000000000000000000000000000000000000000000000000000000000602082015250565b6000612139602183611b02565b9150612144826120dd565b604082019050919050565b600060208201905081810360008301526121688161212c565b9050919050565b7f4552433732313a20617070726f76652063616c6c6572206973206e6f74206f7760008201527f6e6572206e6f7220617070726f76656420666f7220616c6c0000000000000000602082015250565b60006121cb603883611b02565b91506121d68261216f565b604082019050919050565b600060208201905081810360008301526121fa816121be565b9050919050565b7f4552433732313a207472616e736665722063616c6c6572206973206e6f74206f60008201527f776e6572206e6f7220617070726f766564000000000000000000000000000000602082015250565b600061225d603183611b02565b915061226882612201565b604082019050919050565b6000602082019050818103600083015261228c81612250565b9050919050565b7f4552433732313a206f776e657220717565727920666f72206e6f6e657869737460008201527f656e7420746f6b656e0000000000000000000000000000000000000000000000602082015250565b60006122ef602983611b02565b91506122fa82612293565b604082019050919050565b6000602082019050818103600083015261231e816122e2565b9050919050565b7f4f776e61626c653a2063616c6c6572206973206e6f7420746865206f776e6572600082015250565b600061235b602083611b02565b915061236682612325565b602082019050919050565b6000602082019050818103600083015261238a8161234e565b9050919050565b7f4e487b7100000000000000000000000000000000000000000000000000000000600052601160045260246000fd5b60006123cb82611bb2565b91507fffffffffffffffffffffffffffffffffffffffffffffffffffffffffffffffff82036123fd576123fc612391565b5b600182019050919050565b7f4552433732313a2062616c616e636520717565727920666f7220746865207a6560008201527f726f206164647265737300000000000000000000000000000000000000000000602082015250565b6000612464602a83611b02565b915061246f82612408565b604082019050919050565b6000602082019050818103600083015261249381612457565b9050919050565b7f4552433732314d657461646174613a2055524920717565727920666f72206e6f60008201527f6e6578697374656e7420746f6b656e0000000000000000000000000000000000602082015250565b60006124f6602f83611b02565b91506125018261249a565b604082019050919050565b60006020820190508181036000830152612525816124e9565b9050919050565b600081905092915050565b600061254282611af7565b61254c818561252c565b935061255c818560208601611b13565b80840191505092915050565b60006125748285612537565b91506125808284612537565b91508190509392505050565b7f4f776e61626c653a206e6577206f776e657220697320746865207a65726f206160008201527f6464726573730000000000000000000000000000000000000000000000000000602082015250565b60006125e8602683611b02565b91506125f38261258c565b604082019050919050565b60006020820190508181036000830152612617816125db565b9050919050565b7f4552433732313a206f70657261746f7220717565727920666f72206e6f6e657860008201527f697374656e7420746f6b656e0000000000000000000000000000000000000000602082015250565b600061267a602c83611b02565b91506126858261261e565b604082019050919050565b600060208201905081810360008301526126a98161266d565b9050919050565b7f4552433732313a207472616e73666572206f6620746f6b656e2074686174206960008201527f73206e6f74206f776e0000000000000000000000000000000000000000000000602082015250565b600061270c602983611b02565b9150612717826126b0565b604082019050919050565b6000602082019050818103600083015261273b816126ff565b9050919050565b7f4552433732313a207472616e7366657220746f20746865207a65726f2061646460008201527f7265737300000000000000000000000000000000000000000000000000000000602082015250565b600061279e602483611b02565b91506127a982612742565b604082019050919050565b600060208201905081810360008301526127cd81612791565b9050919050565b60006127df82611bb2565b91506127ea83611bb2565b9250828210156127fd576127fc612391565b5b828203905092915050565b600061281382611bb2565b915061281e83611bb2565b9250827fffffffffffffffffffffffffffffffffffffffffffffffffffffffffffffffff0382111561285357612852612391565b5b828201905092915050565b7f4552433732313a20617070726f766520746f2063616c6c657200000000000000600082015250565b6000612894601983611b02565b915061289f8261285e565b602082019050919050565b600060208201905081810360008301526128c381612887565b9050919050565b7f4552433732313a207472616e7366657220746f206e6f6e20455243373231526560008201527f63656976657220696d706c656d656e7465720000000000000000000000000000602082015250565b6000612926603283611b02565b9150612931826128ca565b604082019050919050565b6000602082019050818103600083015261295581612919565b9050919050565b7f4e487b7100000000000000000000000000000000000000000000000000000000600052601260045260246000fd5b600061299682611bb2565b91506129a183611bb2565b9250826129b1576129b061295c565b5b828204905092915050565b60006129c782611bb2565b91506129d283611bb2565b9250826129e2576129e161295c565b5b828206905092915050565b7f4e487b7100000000000000000000000000000000000000000000000000000000600052603260045260246000fd5b600081519050919050565b600082825260208201905092915050565b6000612a4382612a1c565b612a4d8185612a27565b9350612a5d818560208601611b13565b612a6681611b46565b840191505092915050565b6000608082019050612a866000830187611c47565b612a936020830186611c47565b612aa06040830185611d5d565b8181036060830152612ab28184612a38565b905095945050505050565b600081519050612acc81611a68565b92915050565b600060208284031215612ae857612ae7611a32565b5b6000612af684828501612abd565b91505092915050565b7f4552433732313a206d696e7420746f20746865207a65726f2061646472657373600082015250565b6000612b35602083611b02565b9150612b4082612aff565b602082019050919050565b60006020820190508181036000830152612b6481612b28565b9050919050565b7f4552433732313a20746f6b656e20616c7265616479206d696e74656400000000600082015250565b6000612ba1601c83611b02565b9150612bac82612b6b565b602082019050919050565b60006020820190508181036000830152612bd081612b94565b905091905056fea2646970667358221220895e393b7b2f456d0b136d3c08fde59421304ab4e82cf3a6c113278f898a1b2164736f6c634300080d0033",
  "immutableReferences": {},
  "source": "// SPDX-License-Identifier: MIT\npragma solidity ^0.8.13;\n\nimport \"@openzeppelin/contracts/token/ERC721/ERC721.sol\";\nimport \"@openzeppelin/contracts/access/Ownable.sol\";\n\ncontract MyNFT is ERC721, Ownable {\n    uint256 public nextTokenId;\n\n    constructor() ERC721(\"MyNFT\", \"MNFT\") {}\n\n    function mint(address to) external onlyOwner {\n        _safeMint(to, nextTokenId);\n        nextTokenId++;\n    }\n\n    function _baseURI() internal view virtual override returns (string memory) {\n        return \"https://api.mynft.com/metadata/\";\n    }\n    \n    // Public function to expose the base URI\n\n    function getBaseURI() public view returns (string memory) {\n        return _baseURI();\n    }\n}\n",
  "sourcePath": "/Users/niyaaniyan/Documents/Rex/programming/blockchain-solidity/ERC-721/contracts/MyNFT.sol",
  "compiler": {
    "name": "solc",
    "version": "0.8.13+commit.abaa5c0e.Emscripten.clang"
  },
  "schemaVersion": "3.4.16",
  "updatedAt": "2024-09-02T05:34:29.098Z",
  "networkType": "ethereum",
  "devdoc": {
    "kind": "dev",
    "methods": {
      "approve(address,uint256)": {
        "details": "See {IERC721-approve}."
      },
      "balanceOf(address)": {
        "details": "See {IERC721-balanceOf}."
      },
      "getApproved(uint256)": {
        "details": "See {IERC721-getApproved}."
      },
      "isApprovedForAll(address,address)": {
        "details": "See {IERC721-isApprovedForAll}."
      },
      "name()": {
        "details": "See {IERC721Metadata-name}."
      },
      "owner()": {
        "details": "Returns the address of the current owner."
      },
      "ownerOf(uint256)": {
        "details": "See {IERC721-ownerOf}."
      },
      "renounceOwnership()": {
        "details": "Leaves the contract without owner. It will not be possible to call `onlyOwner` functions anymore. Can only be called by the current owner. NOTE: Renouncing ownership will leave the contract without an owner, thereby removing any functionality that is only available to the owner."
      },
      "safeTransferFrom(address,address,uint256)": {
        "details": "See {IERC721-safeTransferFrom}."
      },
      "safeTransferFrom(address,address,uint256,bytes)": {
        "details": "See {IERC721-safeTransferFrom}."
      },
      "setApprovalForAll(address,bool)": {
        "details": "See {IERC721-setApprovalForAll}."
      },
      "supportsInterface(bytes4)": {
        "details": "See {IERC165-supportsInterface}."
      },
      "symbol()": {
        "details": "See {IERC721Metadata-symbol}."
      },
      "tokenURI(uint256)": {
        "details": "See {IERC721Metadata-tokenURI}."
      },
      "transferFrom(address,address,uint256)": {
        "details": "See {IERC721-transferFrom}."
      },
      "transferOwnership(address)": {
        "details": "Transfers ownership of the contract to a new account (`newOwner`). Can only be called by the current owner."
      }
    },
    "version": 1
  },
  "userdoc": {
    "kind": "user",
    "methods": {},
    "version": 1
  }
}