{
  "contractName": "AnotherContract",
  "abi": [
    {
      "inputs": [
        {
          "internalType": "uint256",
          "name": "initialValue",
          "type": "uint256"
        }
      ],
      "stateMutability": "nonpayable",
      "type": "constructor"
    },
    {
      "inputs": [],
      "name": "value",
      "outputs": [
        {
          "internalType": "uint256",
          "name": "",
          "type": "uint256"
        }
      ],
      "stateMutability": "view",
      "type": "function",
      "constant": true
    },
    {
      "inputs": [
        {
          "internalType": "uint256",
          "name": "newValue",
          "type": "uint256"
        }
      ],
      "name": "setValue",
      "outputs": [],
      "stateMutability": "nonpayable",
      "type": "function"
    }
  ],
  "bytecode": "0x608060405234801561001057600080fd5b506040516101d93803806101d983398181016040528101906100329190610054565b806000819055505061009e565b60008151905061004e81610087565b92915050565b60006020828403121561006657600080fd5b60006100748482850161003f565b91505092915050565b6000819050919050565b6100908161007d565b811461009b57600080fd5b50565b61012c806100ad6000396000f3fe6080604052348015600f57600080fd5b506004361060325760003560e01c80633fa4f24514603757806355241077146051575b600080fd5b603d6069565b6040516048919060bf565b60405180910390f35b6067600480360381019060639190608c565b606f565b005b60005481565b8060008190555050565b60008135905060868160e2565b92915050565b600060208284031215609d57600080fd5b600060a9848285016079565b91505092915050565b60b98160d8565b82525050565b600060208201905060d2600083018460b2565b92915050565b6000819050919050565b60e98160d8565b811460f357600080fd5b5056fea2646970667358221220cc2278fd7fe66ebaab056e0537897f8969adc7e9d4446aaf01fe9a970856538964736f6c63430008020033",
  "immutableReferences": {},
  "source": "// SPDX-License-Identifier: MIT\npragma solidity ^0.8.2;\n\ncontract SimpleContract {\n    string public message;\n\n    constructor() {\n        message = \"Hello, World!\";\n    }\n\n    function setMessage(string memory newMessage) public {\n        message = newMessage;\n    }\n}\n\ncontract AnotherContract {\n    uint public value;\n\n    constructor(uint initialValue) {\n        value = initialValue;\n    }\n\n    function setValue(uint newValue) public {\n        value = newValue;\n    }\n}\n\ncontract BlockHashInfo {\n    function getPreviousBlockHash() public view returns (bytes32) {\n        // Fetch the hash of the previous Block\n        return blockhash(block.number - 1);\n    }\n\n    function getCurrentBlockHash() public view returns (bytes32) {\n        // Fetch the hash of the current block\n        return blockhash(block.number);\n    }\n}\n\ncontract BlockInfo {\n    function getBlockDetails() public view returns (\n        uint256 blockNumber,\n        uint256 timestamp,\n        // address coinbase,\n        uint256 difficulty,\n        uint256 gaslimit\n    ) {\n        return (\n            block.number,      // Returns the block number\n            block.timestamp,   // Returns the block timestamp\n            // block.coinbase,    // Returns the address of the miner/validator\n            block.difficulty,  // Returns the difficulty of the current block\n            block.gaslimit    // Returns the gas limit of the current block\n        );\n    }\n}",
  "sourcePath": "/Users/niyaaniyan/Documents/Rex/programming/solidity/SimpleSolidityProject/contracts/SimpleContract.sol",
  "compiler": {
    "name": "solc",
    "version": "0.8.2+commit.661d1103.Emscripten.clang"
  },
  "schemaVersion": "3.4.1",
  "updatedAt": "2024-08-26T05:01:39.186Z",
  "networkType": "ethereum",
  "devdoc": {
    "kind": "dev",
    "methods": {},
    "version": 1
  },
  "userdoc": {
    "kind": "user",
    "methods": {},
    "version": 1
  }
}