{
  "contractName": "BlockHashInfo",
  "abi": [
    {
      "inputs": [],
      "name": "getPreviousBlockHash",
      "outputs": [
        {
          "internalType": "bytes32",
          "name": "",
          "type": "bytes32"
        }
      ],
      "stateMutability": "view",
      "type": "function",
      "constant": true
    },
    {
      "inputs": [],
      "name": "getCurrentBlockHash",
      "outputs": [
        {
          "internalType": "bytes32",
          "name": "",
          "type": "bytes32"
        }
      ],
      "stateMutability": "view",
      "type": "function",
      "constant": true
    }
  ],
  "bytecode": "0x608060405234801561001057600080fd5b5061016c806100206000396000f3fe608060405234801561001057600080fd5b50600436106100365760003560e01c80637ca3d4981461003b5780638395f7a414610059575b600080fd5b610043610077565b60405161005091906100a4565b60405180910390f35b610061610080565b60405161006e91906100a4565b60405180910390f35b60004340905090565b600060014361008f91906100bf565b40905090565b61009e816100f3565b82525050565b60006020820190506100b96000830184610095565b92915050565b60006100ca826100fd565b91506100d5836100fd565b9250828210156100e8576100e7610107565b5b828203905092915050565b6000819050919050565b6000819050919050565b7f4e487b7100000000000000000000000000000000000000000000000000000000600052601160045260246000fdfea2646970667358221220b4889eb1f387903df98736b8c202b960febae772ce6fc491287499b6b3a3ab7464736f6c63430008020033",
  "immutableReferences": {},
  "source": "// SPDX-License-Identifier: MIT\npragma solidity ^0.8.2;\n\ncontract SimpleContract {\n    string public message;\n\n    constructor() {\n        message = \"Hello, World!\";\n    }\n\n    function setMessage(string memory newMessage) public {\n        message = newMessage;\n    }\n}\n\ncontract AnotherContract {\n    uint public value;\n\n    constructor(uint initialValue) {\n        value = initialValue;\n    }\n\n    function setValue(uint newValue) public {\n        value = newValue;\n    }\n}\n\ncontract BlockHashInfo {\n    function getPreviousBlockHash() public view returns (bytes32) {\n        // Fetch the hash of the previous Block\n        return blockhash(block.number - 1);\n    }\n\n    function getCurrentBlockHash() public view returns (bytes32) {\n        // Fetch the hash of the current block\n        return blockhash(block.number);\n    }\n}\n\ncontract BlockInfo {\n    function getBlockDetails() public view returns (\n        uint256 blockNumber,\n        uint256 timestamp,\n        // address coinbase,\n        uint256 difficulty,\n        uint256 gaslimit\n    ) {\n        return (\n            block.number,      // Returns the block number\n            block.timestamp,   // Returns the block timestamp\n            // block.coinbase,    // Returns the address of the miner/validator\n            block.difficulty,  // Returns the difficulty of the current block\n            block.gaslimit    // Returns the gas limit of the current block\n        );\n    }\n}",
  "sourcePath": "/Users/niyaaniyan/Documents/Rex/programming/solidity/SimpleSolidityProject/contracts/SimpleContract.sol",
  "compiler": {
    "name": "solc",
    "version": "0.8.2+commit.661d1103.Emscripten.clang"
  },
  "schemaVersion": "3.4.1",
  "updatedAt": "2024-08-26T05:01:39.188Z",
  "networkType": "ethereum",
  "devdoc": {
    "kind": "dev",
    "methods": {},
    "version": 1
  },
  "userdoc": {
    "kind": "user",
    "methods": {},
    "version": 1
  }
}