{
  "contractName": "BlockInfo",
  "abi": [
    {
      "inputs": [],
      "name": "getBlockDetails",
      "outputs": [
        {
          "internalType": "uint256",
          "name": "blockNumber",
          "type": "uint256"
        },
        {
          "internalType": "uint256",
          "name": "timestamp",
          "type": "uint256"
        },
        {
          "internalType": "uint256",
          "name": "difficulty",
          "type": "uint256"
        },
        {
          "internalType": "uint256",
          "name": "gaslimit",
          "type": "uint256"
        }
      ],
      "stateMutability": "view",
      "type": "function",
      "constant": true
    }
  ],
  "bytecode": "0x608060405234801561001057600080fd5b5060ec8061001f6000396000f3fe6080604052348015600f57600080fd5b506004361060285760003560e01c8063bd38216e14602d575b600080fd5b6033604a565b60405160419493929190606f565b60405180910390f35b60008060008043424445935093509350935090919293565b60698160ac565b82525050565b6000608082019050608260008301876062565b608d60208301866062565b609860408301856062565b60a360608301846062565b95945050505050565b600081905091905056fea2646970667358221220b28f895d2bb4c9417e96a059ac60966ea4e8f49483163378ac65560b5bd5c9c164736f6c63430008020033",
  "immutableReferences": {},
  "source": "// SPDX-License-Identifier: MIT\npragma solidity ^0.8.2;\n\ncontract SimpleContract {\n    string public message;\n\n    constructor() {\n        message = \"Hello, World!\";\n    }\n\n    function setMessage(string memory newMessage) public {\n        message = newMessage;\n    }\n}\n\ncontract AnotherContract {\n    uint public value;\n\n    constructor(uint initialValue) {\n        value = initialValue;\n    }\n\n    function setValue(uint newValue) public {\n        value = newValue;\n    }\n}\n\ncontract BlockHashInfo {\n    function getPreviousBlockHash() public view returns (bytes32) {\n        // Fetch the hash of the previous Block\n        return blockhash(block.number - 1);\n    }\n\n    function getCurrentBlockHash() public view returns (bytes32) {\n        // Fetch the hash of the current block\n        return blockhash(block.number);\n    }\n}\n\ncontract BlockInfo {\n    function getBlockDetails() public view returns (\n        uint256 blockNumber,\n        uint256 timestamp,\n        // address coinbase,\n        uint256 difficulty,\n        uint256 gaslimit\n    ) {\n        return (\n            block.number,      // Returns the block number\n            block.timestamp,   // Returns the block timestamp\n            // block.coinbase,    // Returns the address of the miner/validator\n            block.difficulty,  // Returns the difficulty of the current block\n            block.gaslimit    // Returns the gas limit of the current block\n        );\n    }\n}",
  "sourcePath": "/Users/niyaaniyan/Documents/Rex/programming/solidity/SimpleSolidityProject/contracts/SimpleContract.sol",
  "compiler": {
    "name": "solc",
    "version": "0.8.2+commit.661d1103.Emscripten.clang"
  },
  "schemaVersion": "3.4.1",
  "updatedAt": "2024-08-26T05:01:39.190Z",
  "networkType": "ethereum",
  "devdoc": {
    "kind": "dev",
    "methods": {},
    "version": 1
  },
  "userdoc": {
    "kind": "user",
    "methods": {},
    "version": 1
  }
}