{
  "contractName": "SimpleENS",
  "abi": [
    {
      "inputs": [
        {
          "internalType": "string",
          "name": "",
          "type": "string"
        }
      ],
      "name": "nameToAddress",
      "outputs": [
        {
          "internalType": "address",
          "name": "",
          "type": "address"
        }
      ],
      "stateMutability": "view",
      "type": "function",
      "constant": true
    },
    {
      "inputs": [
        {
          "internalType": "string",
          "name": "name",
          "type": "string"
        },
        {
          "internalType": "address",
          "name": "addr",
          "type": "address"
        }
      ],
      "name": "registerName",
      "outputs": [],
      "stateMutability": "nonpayable",
      "type": "function"
    },
    {
      "inputs": [
        {
          "internalType": "string",
          "name": "name",
          "type": "string"
        }
      ],
      "name": "resolveName",
      "outputs": [
        {
          "internalType": "address",
          "name": "",
          "type": "address"
        }
      ],
      "stateMutability": "view",
      "type": "function",
      "constant": true
    }
  ],
  "bytecode": "0x608060405234801561001057600080fd5b5061062b806100206000396000f3fe608060405234801561001057600080fd5b50600436106100415760003560e01c806308d88aad146100465780637b59af1614610076578063bc19bce514610092575b600080fd5b610060600480360381019061005b91906103ba565b6100c2565b60405161006d9190610444565b60405180910390f35b610090600480360381019061008b919061048b565b61010b565b005b6100ac60048036038101906100a791906103ba565b610219565b6040516100b99190610444565b60405180910390f35b6000818051602081018201805184825260208301602085012081835280955050505050506000915054906101000a900473ffffffffffffffffffffffffffffffffffffffff1681565b600073ffffffffffffffffffffffffffffffffffffffff166000836040516101339190610561565b908152602001604051809103902060009054906101000a900473ffffffffffffffffffffffffffffffffffffffff1673ffffffffffffffffffffffffffffffffffffffff16146101b8576040517f08c379a00000000000000000000000000000000000000000000000000000000081526004016101af906105d5565b60405180910390fd5b806000836040516101c99190610561565b908152602001604051809103902060006101000a81548173ffffffffffffffffffffffffffffffffffffffff021916908373ffffffffffffffffffffffffffffffffffffffff1602179055505050565b6000808260405161022a9190610561565b908152602001604051809103902060009054906101000a900473ffffffffffffffffffffffffffffffffffffffff169050919050565b6000604051905090565b600080fd5b600080fd5b600080fd5b600080fd5b6000601f19601f8301169050919050565b7f4e487b7100000000000000000000000000000000000000000000000000000000600052604160045260246000fd5b6102c78261027e565b810181811067ffffffffffffffff821117156102e6576102e561028f565b5b80604052505050565b60006102f9610260565b905061030582826102be565b919050565b600067ffffffffffffffff8211156103255761032461028f565b5b61032e8261027e565b9050602081019050919050565b82818337600083830152505050565b600061035d6103588461030a565b6102ef565b90508281526020810184848401111561037957610378610279565b5b61038484828561033b565b509392505050565b600082601f8301126103a1576103a0610274565b5b81356103b184826020860161034a565b91505092915050565b6000602082840312156103d0576103cf61026a565b5b600082013567ffffffffffffffff8111156103ee576103ed61026f565b5b6103fa8482850161038c565b91505092915050565b600073ffffffffffffffffffffffffffffffffffffffff82169050919050565b600061042e82610403565b9050919050565b61043e81610423565b82525050565b60006020820190506104596000830184610435565b92915050565b61046881610423565b811461047357600080fd5b50565b6000813590506104858161045f565b92915050565b600080604083850312156104a2576104a161026a565b5b600083013567ffffffffffffffff8111156104c0576104bf61026f565b5b6104cc8582860161038c565b92505060206104dd85828601610476565b9150509250929050565b600081519050919050565b600081905092915050565b60005b8381101561051b578082015181840152602081019050610500565b8381111561052a576000848401525b50505050565b600061053b826104e7565b61054581856104f2565b93506105558185602086016104fd565b80840191505092915050565b600061056d8284610530565b915081905092915050565b600082825260208201905092915050565b7f4e616d6520616c72656164792074616b656e0000000000000000000000000000600082015250565b60006105bf601283610578565b91506105ca82610589565b602082019050919050565b600060208201905081810360008301526105ee816105b2565b905091905056fea2646970667358221220706461d22b1ece493a61c422aa237207796b40067b77bb76858d1e01d03f3aaa64736f6c634300080d0033",
  "immutableReferences": {},
  "source": "// SPDX-License-Identifier: MIT\npragma solidity ^0.8.13;\n\ncontract SimpleENS {\n    mapping(string => address) public nameToAddress;\n    //For example, by declaring mapping(string => address) public nameToAddress;, Solidity will generate the following getter function for free:\n    //    function nameToAddress(string memory name) public view returns (address) {\n    //    return nameToAddress[name];\n    //}\n\n\n\n    function registerName(string memory name, address addr) public {\n        require(nameToAddress[name] == address(0), \"Name already taken\");\n        nameToAddress[name] = addr;\n    }\n\n    function resolveName(string memory name) public view returns (address) {\n        return nameToAddress[name];\n    }\n}\n",
  "sourcePath": "/Users/niyaaniyan/Documents/Rex/programming/blockchain-solidity/ENS - Ethereum Name Service/contracts/SimpleENS.sol",
  "compiler": {
    "name": "solc",
    "version": "0.8.13+commit.abaa5c0e.Emscripten.clang"
  },
  "schemaVersion": "3.4.16",
  "updatedAt": "2024-09-23T06:41:09.041Z",
  "networkType": "ethereum",
  "devdoc": {
    "kind": "dev",
    "methods": {},
    "version": 1
  },
  "userdoc": {
    "kind": "user",
    "methods": {},
    "version": 1
  }
}