{
  "contractName": "EthSender",
  "abi": [
    {
      "inputs": [
        {
          "internalType": "address payable",
          "name": "_receiver",
          "type": "address"
        }
      ],
      "stateMutability": "nonpayable",
      "type": "constructor"
    },
    {
      "inputs": [],
      "name": "receiver",
      "outputs": [
        {
          "internalType": "address payable",
          "name": "",
          "type": "address"
        }
      ],
      "stateMutability": "view",
      "type": "function",
      "constant": true
    },
    {
      "inputs": [],
      "name": "sendEther",
      "outputs": [],
      "stateMutability": "payable",
      "type": "function",
      "payable": true
    },
    {
      "inputs": [],
      "name": "getBalance",
      "outputs": [
        {
          "internalType": "uint256",
          "name": "",
          "type": "uint256"
        }
      ],
      "stateMutability": "view",
      "type": "function",
      "constant": true
    }
  ],
  "bytecode": "0x608060405234801561001057600080fd5b506040516104773803806104778339818101604052810190610032919061008d565b806000806101000a81548173ffffffffffffffffffffffffffffffffffffffff021916908373ffffffffffffffffffffffffffffffffffffffff160217905550506100ff565b600081519050610087816100e8565b92915050565b60006020828403121561009f57600080fd5b60006100ad84828501610078565b91505092915050565b60006100c1826100c8565b9050919050565b600073ffffffffffffffffffffffffffffffffffffffff82169050919050565b6100f1816100b6565b81146100fc57600080fd5b50565b6103698061010e6000396000f3fe6080604052600436106100345760003560e01c80630e29df221461003957806312065fe014610043578063f7260d3e1461006e575b600080fd5b610041610099565b005b34801561004f57600080fd5b5061005861018e565b6040516100659190610279565b60405180910390f35b34801561007a57600080fd5b50610083610196565b604051610090919061021e565b60405180910390f35b66b1a2bc2ec5000034146100e2576040517f08c379a00000000000000000000000000000000000000000000000000000000081526004016100d990610239565b60405180910390fd5b34471015610125576040517f08c379a000000000000000000000000000000000000000000000000000000000815260040161011c90610259565b60405180910390fd5b60008054906101000a900473ffffffffffffffffffffffffffffffffffffffff1673ffffffffffffffffffffffffffffffffffffffff166108fc349081150290604051600060405180830381858888f1935050505015801561018b573d6000803e3d6000fd5b50565b600047905090565b60008054906101000a900473ffffffffffffffffffffffffffffffffffffffff1681565b6101c3816102a5565b82525050565b60006101d6601e83610294565b91506101e1826102e1565b602082019050919050565b60006101f9602083610294565b91506102048261030a565b602082019050919050565b610218816102d7565b82525050565b600060208201905061023360008301846101ba565b92915050565b60006020820190508181036000830152610252816101c9565b9050919050565b60006020820190508181036000830152610272816101ec565b9050919050565b600060208201905061028e600083018461020f565b92915050565b600082825260208201905092915050565b60006102b0826102b7565b9050919050565b600073ffffffffffffffffffffffffffffffffffffffff82169050919050565b6000819050919050565b7f596f75206d7573742073656e642065786163746c7920302e3035204554480000600082015250565b7f496e73756666696369656e742062616c616e636520696e20636f6e747261637460008201525056fea26469706673582212208b702d15589b577339e20fd4696223fd0d14c227b766d0a4b1cc10d1fa1b54f064736f6c63430008020033",
  "immutableReferences": {},
  "source": "// SPDX-License-Identifier: MIT\npragma solidity ^0.8.0;\n\ncontract EthSender {\n    address payable public receiver;\n\n    constructor(address payable _receiver) {\n        receiver = _receiver;\n    }\n\n    function sendEther() public payable {\n        require(msg.value == 0.05 ether, \"You must send exactly 0.05 ETH\");\n        require(address(this).balance >= msg.value, \"Insufficient balance in contract\");\n\n        // Transfer 0.05 ETH to the receiver\n        receiver.transfer(msg.value);\n    }\n\n    // Function to get the contract's balance\n    function getBalance() public view returns (uint256) {\n        return address(this).balance;\n    }\n}",
  "sourcePath": "/Users/niyaaniyan/Documents/Rex/programming/solidity/sendAndRecevieETH/contracts/SendAndReceiveETH.sol",
  "compiler": {
    "name": "solc",
    "version": "0.8.2+commit.661d1103.Emscripten.clang"
  },
  "schemaVersion": "3.4.1",
  "updatedAt": "2024-08-26T12:48:17.566Z",
  "networkType": "ethereum",
  "devdoc": {
    "kind": "dev",
    "methods": {},
    "version": 1
  },
  "userdoc": {
    "kind": "user",
    "methods": {},
    "version": 1
  }
}